:020000040800F2
:10000000607200209D010008530C000825080008BC
:100010004F0C00082B0500086920000800000000B4
:1000200000000000000000000000000005170008AC
:10003000DF05000800000000ED0C0008F5170008BF
:10004000B7010008B7010008B7010008B7010008B0
:10005000B7010008B7010008B7010008B7010008A0
:10006000B7010008B7010008B7010008B701000890
:10007000B7010008B7010008B7010008B701000880
:10008000B7010008B7010008B7010008B701000870
:10009000B7010008B7010008B7010008B701000860
:1000A000B7010008B7010008B7010008B701000850
:1000B000B7010008B7010008B7010008B701000840
:1000C000B7010008B7010008B7010008B701000830
:1000D000B7010008C91B0008D91B0008E91B00086C
:1000E000B7010008B7010008B7010008B701000810
:1000F000B7010008B7010008B7010008B701000800
:10010000B7010008B7010008B7010008B7010008EF
:10011000B7010008B7010008B7010008B7010008DF
:10012000B7010008B7010008B7010008B7010008CF
:10013000B7010008B7010008B7010008B7010008BF
:10014000B7010008B7010008B7010008B7010008AF
:10015000B7010008B7010008B7010008111C00082A
:10016000B7010008B7010008B7010008B70100088F
:10017000B7010008B7010008B7010008B70100087F
:10018000B7010008B7010008DFF80CD000F072F8E2
:10019000004800476D2F0008607200200648804725
:1001A00006480047FEE7FEE7FEE7FEE7FEE7FEE75C
:1001B000FEE7FEE7FEE7FEE7811800088901000878
:1001C00040EA01039B0703D009E008C9121F08C0D9
:1001D000042AFAD203E011F8013B00F8013B521E59
:1001E000F9D2704730B504460020034600E05B1C9E
:1001F000934203D2E05CCD5C401BF8D030BD034697
:1002000011F8012B00F8012B002AF9D1184670478C
:100210002DE9F05F0546002092469B46884606463B
:10022000814640241BE0284641464746224600F0CE
:1002300042F853465A46C01A914110D31146184607
:10024000224600F029F82D1A67EB01084F46224696
:100250000120002100F020F817EB00094E41201E7C
:10026000A4F10104DFDC484631462A464346BDE896
:10027000F09F0000064C074D06E0E06840F00103E7
:1002800094E8070098471034AC42F6D3FFF780FF9C
:10029000AC390008CC390008202A04DB203A00FAE7
:1002A00002F1002070479140C2F1200320FA03F3CD
:1002B000194390407047202A04DB203A21FA02F0CB
:1002C0000021704721FA02F3D040C2F12002914090
:1002D0000843194670472DE9F041044602F000FE3C
:1002E000EE2002F0D3FD02F023FE204602F0CEFD08
:1002F00002F01EFE02F0F4FDEF2002F0C7FD02F056
:1003000017FE02F0A1FD054602F06AFD02F09CFD19
:10031000064602F085FD02F0FBFD06EB052087B2E4
:100320003846BDE8F0812DE9F041044602F0D8FDE1
:10033000EE2002F0ABFD02F0FBFD204602F0A6FD30
:1003400002F0F6FD02F0CCFDEF2002F09FFD02F07E
:10035000EFFD02F079FD054602F042FD02F074FD6A
:10036000064602F03DFD02F06FFD074602F058FD23
:1003700002F0CEFD280400EB062000EB0708404603
:10038000BDE8F0812DE9FF5F2E21F42000F0B6F8E2
:1003900000F092F8F620FFF79EFF03904448807D1E
:1003A000342202EB8010C1B2F42000F0A7F800F074
:1003B00083F8F620FFF7B7FF3D49897DC1F10801B9
:1003C000C84001903A4841890398401A3849098940
:1003D0004843C4133648B0F91200C0023449B1F999
:1003E0001410214490FBF1F604EB060909F1080012
:1003F000001102902E4902988861A9F57A67084693
:10040000B0F90E0007FB07F14843C4152848B0F9BE
:1004100002007843C61204EB060A2548B0F9000032
:100420000AEB80002249897D8840801C8010009062
:100430001F48B0F90400784344131D48B0F90C007C
:1004400007FB07F1091348430614A019801C4FEA63
:10045000A00A1748C0880AF5004148434FEAD03B3C
:10046000DDE90010401A12498A7D4CF250311141E9
:1004700000FB01F8B8F1004F04D24FEA4800B0FB8E
:10048000FBF502E0B8FBFBF04500281200FB00F48E
:1004900040F6DE3060430414064868430614A01991
:1004A00000F6CF6005EB20150148C561BDE8FF9F50
:1004B000F031002043E3FFFF10B50F48807D18B9ED
:1004C000062002F073F816E00B48807D012803D166
:1004D000092002F06BF80EE00748807D022803D166
:1004E0000F2002F063F806E00348807D032802D164
:1004F0001B2002F05BF810BDF031002070B50546FE
:100500000C4602F0EDFCEE2002F0C0FC02F010FD03
:10051000284602F0BBFC02F00BFD204602F0B6FCC0
:1005200002F006FD02F0F4FC70BD00BFFEE7000023
:10053000014609B90B487047012901D10A48FAE779
:10054000022901D10948F6E7032901D10020F2E789
:10055000042901D10020EEE7052901D10448EAE78A
:100560000020E8E7340100205C090020841100200D
:10057000AC19002008B54FF4E06000F0A7FB25207F
:100580008DF8000000208DF8020001208DF8030096
:10059000684600F05FFB26208DF8000001208DF8F2
:1005A00002008DF80300684600F054FB27208DF808
:1005B000000002208DF8020001208DF8030068463B
:1005C00000F048FB47208DF8000005208DF8020060
:1005D00001208DF80300684600F03CFB08BD704721
:1005E0000149086070470000143C01400021234984
:1005F0008279002A3AD00A46126803689A430B4669
:100600001A600A1D126803689A430B1D1A6002796A
:1006100011440A6803681A430A60184A08321268CB
:1006200003689A43154B08331A601A1D1268036851
:100630009A43124B0C331A604279102A0ED11A1FBA
:10064000126803681A430D4B08331A601A1D1268AA
:1006500003681A43094B0C331A600DE007494279CD
:1006600011440A6803681A430A6005E002791144DC
:100670000A6803689A430A6070470000003C014022
:1006800001B52DED020B01466A46002004E012F888
:10069000013B0B54431CD8B20428F8DB0EBDF0B567
:1006A0000A4600210023002400BF3DE0012505FA91
:1006B00001F3156805EA03049C4234D105684F0034
:1006C0000326BE40B543056015794E00B540066867
:1006D000354305601579012D02D01579022D16D10B
:1006E00085684F000326BE40B543856055794E00AE
:1006F000B540866835438560456801268E40B54320
:100700004560456896798E40B6B235434560C56808
:100710004F000326BE40B543C560D5794E00B540B5
:10072000C6683543C560491C1029BFD3F0BDF0B57C
:10073000002300244D07ED0E02FA05F3CE1000F160
:10074000200555F826504E07F70E0F26BE40B5433C
:10075000CF1000F1200646F82750CE1000F12005FA
:1007600055F8265045EA0304CE1000F1200545F85F
:100770002640F0BD0246002013690B4201D0012043
:1007800000E00020704741837047018370470000FC
:1007900010B502F09BF9012001F0A6F8012001F04C
:1007A000F3F815490880022001F09EF8022001F0BC
:1007B000EBF8124908801048008841F2883148431C
:1007C0004FF6FF7190FBF1F000EE100AB8EEC00A90
:1007D0000B4880ED000A0948008841F288314843FF
:1007E0004FF6FF7190FBF1F000EE100AB8EEC00A70
:1007F000044880ED000A10BD000000200200002027
:10080000040000200800002010B501F069FFFFF788
:10081000B9FD4FF47A71012002F056FAFFF7B2FDEC
:1008200010BD000008A100200AE00A5C114B9A806C
:1008300000BF104A128812F0400FFAD0421CD0B20A
:100840002A28F2D300BFFEE70D0A456E74657220B8
:10085000486172644661756C745F48616E646C6572
:10086000722C2053797374656D2048616C742E0D61
:100870000A0000000010014000B587B001210846C1
:1008800000F0C4FA0121102000F0E0FA072209214B
:10089000AB48FFF74CFF07220A21A948FFF747FFA3
:1008A00000208DF81A0001208DF81B0002208DF821
:1008B00018000002059002208DF8190005A9A04833
:1008C000FFF7EDFE02208DF818004002059005A903
:1008D0009B48FFF7E4FE4FF4E13001900020ADF8B3
:1008E0000800ADF80A00ADF80C00ADF810000C20BF
:1008F000ADF80E0001A9934801F0F6F9012240F28B
:100900002551904801F0CBF901218E4801F091F971
:1009100040218C4801F084F90121084600F076FA64
:100920000121480400F082FA072203218448FFF7DE
:10093000FEFE00208DF81A0001208DF81B00022019
:100940008DF818008DF818000820059002208DF809
:10095000190005A97A48FFF7A2FE4FF4165001903E
:100960000020ADF80800ADF80A00ADF80C00ADF8B5
:1009700010000420ADF80E0001A9734801F0B4F98D
:10098000012240F22551704801F089F901216E4899
:1009900001F04FF940216C4801F042F90121022099
:1009A00000F034FA01208DF8180000208DF81A00AC
:1009B0008DF81B0003208DF819000420059005A96F
:1009C0006248FFF76CFE0121022000F01FFA0121AE
:1009D000880400F02BFA07220A215C48FFF7A7FEE3
:1009E00007220B215948FFF7A2FE00208DF81A00BC
:1009F00001208DF81B0002208DF8180040020590A0
:100A000002208DF8190005A95048FFF748FE022082
:100A10008DF818008002059005A94C48FFF73FFEAD
:100A20004FF4165001900020ADF80800ADF80A0010
:100A3000ADF80C00ADF810000C20ADF80E0001A9C7
:100A4000434801F051F9012240F22551404801F09C
:100A500026F901213E4801F0ECF840213C4801F024
:100A6000DFF80121442000F0D1F90121202000F01D
:100A7000EDF908220E213748FFF759FE0822072119
:100A80003548FFF754FE082211463248FFF74FFE63
:100A900008220F212F48FFF74AFE00208DF81A0088
:100AA00001208DF81B0002208DF8180040030590EE
:100AB00002208DF8190005A92648FFF7F0FD022055
:100AC0008DF818008020059005A92348FFF7E7FD61
:100AD00002208DF81800C001059005A91D48FFF7F8
:100AE000DEFD02208DF818008003059005A9194845
:100AF000FFF7D5FD4FF4E13001900020ADF808007C
:100B0000ADF80A00ADF80C004FF44070ADF81000DD
:100B10000C20ADF80E0001A9104801F0E5F8012203
:100B200040F225510D4801F0BAF801210B4801F0BF
:100B300080F84021094801F073F807B000BD0000BB
:100B40000000024000100140004400400004024048
:100B50000048004000180240000802400014014014
:100B60000448006910F4807F01D101207047002003
:100B7000FCE700000020024010B5FFF7F1FF20B1B4
:100B800000F006F808B1012010BD0020FCE70000CD
:100B90000448006810F4005F01D101207047002074
:100BA000FCE70000100802400448006910F4006FE0
:100BB00001D1012070470020FCE700000020024026
:100BC0000448006810F0040F01D101207047002094
:100BD000FCE70000101C02400448006810F0080FF9
:100BE00001D1012070470020FCE70000101C0240EA
:100BF0000448006810F4006F01D101207047002004
:100C0000FCE70000101402400448006810F0800F58
:100C100001D1012070470020FCE7000010180240BD
:100C20000448006810F4004F01D1012070470020F3
:100C3000FCE70000101C024010B5FFF791FF20B147
:100C4000FFF7A6FF08B1012010BD0020FCE700BFA0
:100C5000FEE7704770B5002100230F22C47824B34B
:100C6000174C246804F4E064C4F5E064C4F307217D
:100C7000C1F10404E3B20A4144789C40E1B28478B3
:100C8000144021430C07210E0E4C05786155047861
:100C900004F01F050124AC4005786D114FF0E026EB
:100CA00006EB8505C5F8004109E0047804F01F044F
:100CB0000125A540044C0678761144F8265070BDF5
:100CC0000CED00E000E400E080E100E002490143B7
:100CD000024A1160704700000000FA050CED00E0C8
:100CE000014908627047000000000E427047000092
:100CF00010B50FA001F0BAF90EA001F0B7F91DA1CF
:100D00001FA001F0B3F923A123A001F0AFF927A19F
:100D100029A001F0ABF90023032201212BA001F04F
:100D2000A5F938A001F0A2F902A001F09FF910BDC9
:100D30000D0A00002A2A2A2A2A2A2A2A2A2A2A2AA4
:100D40002A2A2A2A2A2A2A2A2A2A2A2A2A2A2A2A03
:100D50002A2A2A2A2A2A2A2A2A2A2A2A2A2A2A2AF3
:100D60002A2A2A2A2A2A2A2A2A2A2A2A2A2A2A2AE3
:100D70002A0D0A00B1CFD2B5C9E8BCC600000000F8
:100D80002A20C0FDB3CCC3FBB3C62020203A2025C7
:100D9000730D0A00312E32002A20C0FDB3CCB0E61C
:100DA000B1BE2020203A2025730D0A0032303134A4
:100DB0002D30322D323800002A20B7A2B2BCC8D55F
:100DC000C6DA2020203A2025730D0A002A20B9CC4B
:100DD000BCFEBFE2B0E6B1BE203A205625642E2507
:100DE000642E2564202853544D3332463478785F7E
:100DF0005374645065726970685F44726976657295
:100E0000290D0A002A200A0D0000000029B1064A17
:100E100012680243044B1A6004E0034A12688243DA
:100E2000014B1A60704700003038024029B1064A71
:100E300012680243044B1A6004E0034A12688243BA
:100E4000014B1A60704700004038024029B1064A41
:100E500012680243044B1A6004E0034A126882439A
:100E6000014B1A607047000044380240F0B5002181
:100E700000220024022500260223324F3F6807F09B
:100E80000C0121B1042905D0082937D105E02E4FE6
:100E9000076036E02D4F076033E02A4F3F1F3F6861
:100EA000C7F38056274F3F1F3F6807F03F036EB1DF
:100EB000264FB7FBF3F7DFF88CC0ACF1040CDCF87D
:100EC00000C0CCF3881C07FB0CF40CE01E4FB7FBF2
:100ED000F3F7DFF870C0ACF1040CDCF800C0CCF321
:100EE000881C07FB0CF4174F3F1F3F68C7F30147EF
:100EF0007F1C7D00B4FBF5F7076002E0124F07602E
:100F000000BF00BF0F4F3F6807F0F0010909104F05
:100F10007A5C0768D74047600A4F3F6807F4E051A2
:100F2000890A0B4F7A5C4768D7408760054F3F6856
:100F300007F46041490B064F7A5C4768D740C760A9
:100F4000F0BD0000083802400024F40040787D0124
:100F50002C00002010B501460022002300204A1179
:100F6000012A02D10A4C236808E0022A03D1084C66
:100F70007034236802E0064C7434236801F01F02C9
:100F8000012494401C4201D0012000E0002010BD4B
:100F9000003802400021094A11701170012802D066
:100FA000042808D103E00121044A117004E005215E
:100FB000024A117000E000BF00BF70477038024065
:100FC00001490860704700003C0E4742002100F4D0
:100FD0004072B2F5407F08D1094A116821F4F81136
:100FE000084A02401143064A1160054A68321268F5
:100FF000C0F30B031A43024B68331A6070470000BA
:1010000008380240FFFCFF0F38B502460024009468
:1010100000230020CA24184D2C6053242C6041B1B9
:10102000154C1C3C24681443134D1C3D2C600120BE
:101030001EE0114C1C3C246894430F4D1C3D2C6059
:1010400000BF0D4C183C246804EA1223009C641C69
:101050000094009CB4F5803F01D0002BF1D0064CE9
:10106000183C246814EA122F01D1002000E001206E
:10107000FF24014D2C6038BD24280040014600BFEC
:10108000080900EB8000420001F00F001044C0B2DC
:1010900070470146002204E0501CC2B2A1F10A00D0
:1010A000C1B20A29F8DA100741EA1060704700005F
:1010B00081B241F08001044A126802F0800262EAC3
:1010C0000101014A116070470C28004010B5012150
:1010D0000807FFF7ABFE0120FFF702FE0120FFF734
:1010E00059FF00BF4120FFF735FF0028FAD04FF429
:1010F0008070FFF76BFFFF202A4908607F202A4994
:1011000008600120FFF75CFF00F086FA26480068BF
:101110002649486023480068886000200860084627
:1011200000F0D8F816202249C87003204870282003
:10113000887006200870012000F084F900201D4905
:10114000C870052008702020487000208870012099
:1011500000F0DCF943F2F221002000F08DFA0020CB
:101160001549C8700520087020204870302088700C
:1011700031200873002088604FF0004048600A4624
:10118000C10D012000F0E8F80121080300F070F81B
:1011900001210802FFF738FF4FF48070FFF788FF46
:1011A00010BD0000200000201C0000204432002060
:1011B00028000020240000205032002008B5002222
:1011C000009200200021104A126812F0400F19D13D
:1011D000421E0D4B1A6000BF0B4A126802F040011C
:1011E000009A521C0092009AB2F5803F01D000296B
:1011F000F2D0054A126812F0400F01D0012002E03F
:10120000002000E0012008BD0C28004003480068D1
:1012100020F0800001490860704700000C28004061
:1012200070B506460C4600250F4800680F4900EAD5
:101230000105C5F305402070C5F30620607005F078
:101240007F00A07005F48000000CE0705EB920788B
:10125000FFF714FF20706078FFF710FF6070A07830
:10126000FFF70CFFA07070BD002800407F7F7F005B
:10127000CA22174B1A6053221A6091B1144A1C3AC1
:10128000126820F004031A43114B1C3B1A60104AE9
:101290001C32126800F004031A430D4B1C331A6011
:1012A00011E00B4A1C3A126820F004039A43084BE1
:1012B0001C3B1A60064A1C32126800F004039A4371
:1012C000034B1C331A60FF22014B1A607047000069
:1012D0002428004030B504460025CA20154908607E
:1012E00053200860FFF76AFF00B91DE011481C3861
:1012F000006820F040000F491C390860084600686B
:10130000216808430B491C3908600A491439A06850
:10131000086008460068A18840EA01400549143980
:101320000860FFF773FF0125FF2002490860284687
:1013300030BD00002428004008B501460020009080
:1013400004480090009800EB81000090009800682D
:1013500008BD0000502800402DE9F04105460E462A
:101360001446002765B93648006810F0400F00D0D9
:1013700002E00020E07000BFA06800B919E018E0AA
:101380002F48006810F0400F04D02078FFF776FE59
:10139000074602E00020E07000BFA06820B9207B73
:1013A000FFF76CFE074604E0207BFFF767FE074669
:1013B00000BF95B120780004617840EA0120A1784F
:1013C0000843E17840EA0140217B40EA0160A168DE
:1013D0000843616840EA01071BE02078FFF759FEE7
:1013E0004FEA00486078FFF754FE48EA0028A078EA
:1013F000FFF74FFE48EA0008E07848EA0048207B03
:10140000FFF747FE48EA0060A1680843616840EAC8
:101410000107CA200A491C31086053200860B6F54C
:10142000807F03D106481430076002E0044818307A
:101430000760FF2002491C310860BDE8F081000010
:10144000082800402DE9F04105460C4600260027FB
:101450004DB9607800F01000102804D1607820F0B9
:1014600010000A30607005B908E06078FFF706FEEA
:101470000646A078FFF702FE064600BF55B1E078A9
:101480000004617840EA0120A1780843217840EA0D
:10149000413611E0E078FFF7FCFD4FEA0048607844
:1014A000FFF7F7FD48EA0028A078FFF7F2FD48EAC9
:1014B0000008207848EA4036CA20124908605320C4
:1014C0000860FFF77BFE08B9002714E00E483040A3
:1014D0000C4920390860FFF799FE0A481C3800685B
:1014E00010F0200F06D100F097F808B9002702E0AD
:1014F000012700E00127FF20024908603846BDE8C7
:10150000F0810000242800403FFFFF002DE9F0415A
:1015100005460C46002600274DB92E48006810F0FD
:10152000400F00D002E00020E07000BF0DE029482D
:10153000006810F0400F04D02078FFF79FFD0646AA
:1015400002E00020E07000BF00BF55B12078000429
:10155000617840EA0120A1780843E17840EA014639
:1015600011E02078FFF795FD4FEA00486078FFF71B
:1015700090FD48EA0028A078FFF78BFD48EA0008B4
:10158000E07848EA0046CA2012491C31086053201E
:101590000860FFF713FE08B9002713E00E4830403B
:1015A0000C4908390860FFF731FE0A48006810F05E
:1015B000200F06D100F030F808B9002702E001271B
:1015C00000E00127FF2003491C3108603846BDE8D0
:1015D000F0810000082800407F7F7F0008B50749A0
:1015E0000020FFF71DFE05488078009003484378EF
:1015F000027803A1074800F049FD08BD240000203F
:1016000025302E32643A25302E32643A25302E327F
:10161000640000001032002008B500220092002073
:101620000021CA22134B1A6053221A60114A183A39
:10163000126822F0A0020F4B183B1A6000BF0D4A3F
:10164000183A126802F02001009A521C0092009A87
:10165000B2F5003F01D00029F1D0064A183A1268CD
:1016600012F0200F01D0012000E00020FF22014BEA
:101670001A6008BD2428004008B500220092044AE0
:101680000092009A02EB80020092009A116008BD5D
:101690005028004021B1028842F04002028004E05C
:1016A00002884FF6BF731A4002807047024600203E
:1016B00013890B4201D0012000E000207047014651
:1016C000888970478181704710B50022028802F432
:1016D00041520B884C8823438C882343CC88234376
:1016E0000C8923434C8923438C892343CC8923438E
:1016F0001A430280838B4FF2FF74234083830B8A4B
:10170000038210BD704700000CB5002001900090CE
:101710003448006840F480303249086000BF3148E6
:10172000006800F4003000900198401C019000987F
:1017300018B90198B0F5A04FF1D12A48006810F40B
:10174000003F02D00120009001E0002000900098AE
:10175000012845D123484030006840F0805021499D
:10176000403108602048006840F440401E4908604D
:101770001C48083000681B490831086008460068AA
:1017800040F4004008600846006840F4A05008603B
:101790001648091F0860081F006840F08070091F84
:1017A000086000BF0F48006810F0007FFAD040F2D8
:1017B00005700F4908600B480830006820F00300EE
:1017C0000849083108600846006840F002000860D7
:1017D00000BF04480830006800F00C000828F8D169
:1017E0000CBD000000380240007000401954400752
:1017F000003C024010B500F001F810BD10B51B48C8
:10180000006840B119480068401E1849086002D1BC
:10181000012017490870002408E004EB4401154A30
:1018200002EB810001F041FA601CC4B2042CF4DB2D
:1018300011480068401C10490860084600686FF0B5
:101840000041884202D100200B49086001F02CFAC7
:101850000A480078401CC0B2084908700A2803DB17
:101860000020087001F01CFA10BD00000C000020E0
:1018700010000020040100201400002018000020A7
:1018800010B51548006840F470001349086013480B
:10189000006840F001001149086000200F4908313C
:1018A00008600E4800680E4908400C4908600D4861
:1018B000091D0860081F006820F48020091F0860C7
:1018C000002006490C310860FFF71EFF4FF0006052
:1018D00001498039086010BD88ED00E00038024001
:1018E000FFFFF6FE1030002410B50446012C08D18D
:1018F000102000F059F9462000F056F900F022F9C6
:1019000009E0022C07D1112000F04EF9462000F02A
:101910004BF900F017F910BD002001E0411C88B21E
:101920000528FBDB7047000010B580210948FEF751
:101930002AFF00F08DF804464FF6FF7000EA0424F9
:1019400000F086F8204484B280210248FEF71DFF93
:10195000204610BD0014024010B580210948FEF752
:1019600012FF00F075F80446240200F071F80444F8
:10197000240200F06DF8044480210248FEF705FFC0
:10198000204610BD0014024070B504460026002514
:1019900011E000F0D7F8012C03D1382000F004F951
:1019A00004E0022C02D1392000F0FEF8FFF7BCFF62
:1019B0000646681CC5B2022DEBDB304670BD000048
:1019C00010B580210548FEF7DEFE00F041F8044620
:1019D00080210248FEF7D9FE204610BD00140240C7
:1019E00070B50546602D13D007DC6DB1102D0CD0FD
:1019F000202D0BD0302D10D110E0612D0AD0702D8C
:101A000007D0712D09D106E000BF00BF082408E00F
:101A100000BF00BF00BF182403E000BF4FF0FF303D
:101A200070BD00BF45F0080000F0BEF8102C03D1D7
:101A3000FFF77AFF064608E0082C03D1FFF7C0FF46
:101A4000064602E0FFF788FF06463046E8E700005A
:101A500070B50024002517E008210D48FEF793FE1D
:101A6000FFF75AFF6006040E10210948FEF782FEB8
:101A7000012801D1601CC4B208210548FEF785FE8B
:101A8000FFF74AFF681CC5B2082DE5DB204670BD94
:101A90000004024010B510210A48FEF776FE01202E
:101AA00000F084FD10210748FEF76DFE022000F0D3
:101AB0007DFD10210348FEF768FE012000F076FD51
:101AC00010BD00000000024070B5044600251BE078
:101AD00014F0800F04D020210D48FEF756FE03E0DD
:101AE00020210B48FEF74FFE08210948FEF74BFE68
:101AF0006006040EFFF710FF08210548FEF745FEBB
:101B0000FFF70AFF681CC5B2082DE1DB70BD0000BD
:101B10000004024010B580210948FEF734FEFF2082
:101B2000FFF7D2FFFF20FFF7CFFFFF20FFF7CCFF2B
:101B3000FF20FFF7C9FF80210148FEF726FE10BDF8
:101B40000014024010B50C48007800B910BD002404
:101B500006E080210948FEF70DFE00B903E0641C91
:101B600007488442F5D300BF0548844202D305A04C
:101B700000F07CFA00BFE9E71A000020001C0240D8
:101B800000093D00544D373730355F576169744463
:101B900052445928292054696D65204F7574202EB0
:101BA0002E2E0D0A0000000010B5044680210548C5
:101BB000FEF7E9FD2046FFF787FF80210148FEF789
:101BC000E4FD10BD0014024010B5024800F024F9F5
:101BD00010BD00003401002010B5024800F01CF9CF
:101BE00010BD00005C09002010B5024800F014F997
:101BF00010BD0000841100200420014908807047B6
:101C00001804024004200149088070471A04024069
:101C100010B5024800F000F910BD0000AC1900201A
:101C200001F40072B2F5007F00D100BFCA43028008
:101C3000704721B1828942F40052828104E0828996
:101C40004DF6FF731A408281704770B5024600243A
:101C5000002300250020A1F510666A3E00D100BFD8
:101C6000C1F3421501F01F03012606FA03F3012D0B
:101C700002D19689334006E0022D02D1168A334004
:101C800001E0968A33400C12012606FA04F4168805
:101C9000344013B10CB1012000E0002070BDF0B55C
:101CA00003460024002600250020A1F510676A3FA6
:101CB00000D100BF1846C1F3421401F01F060127EE
:101CC00007FA06F5012C01D10C3004E0022C01D1F9
:101CD000103000E014301AB107682F43076002E0AB
:101CE0000768AF430760F0BD2DE9FF4705460E4684
:101CF0000024A14600BFA046B08900B100BF2C8AD5
:101D000024F44054F08804432C82AC8941F20C60E6
:101D10008443B08831890843718908430443AC8106
:101D2000AC8A24F44074B0890443AC826846FFF75F
:101D30009DF82048854202D01F48854202D1DDF837
:101D40000C9001E0DDF80890A88910F4004F08D04D
:101D500009EBC90000EB091031684900B0FBF1F74D
:101D600007E009EBC90000EB091031688900B0FBFE
:101D7000F1F76420B7FBF0F004012009642101FBB6
:101D80001078A88910F4004F08D0322000EBC8006A
:101D9000B0FBF1F000F00700044308E0322000EB54
:101DA00008106421B0FBF1F000F00F0004432C8117
:101DB000BDE8FF87001001400014014001468888FB
:101DC000C0F308007047C1F308028280704770B505
:101DD00004460D46012000F07FF9668B002000F0DC
:101DE0007BF90EB9002070BD218BA068405C287083
:101DF000012000F071F9208B401C80B22083E18922
:101E0000884201DB00202083608B401E608300201D
:101E100000F062F90120E6E710B5044640F22551D2
:101E20002068FFF712FFE0B12068FFF7C7FFE28AE2
:101E3000A1688854E08A401C80B2E082E18988422F
:101E400001DB0020E082608BE189884202DA608B4E
:101E5000401C6083608B012803D1606A08B1606A0E
:101E6000804740F227712068FFF7EFFE08B3A08A91
:101E700060B9002240F227712068FFF710FF0122AD
:101E800040F226612068FFF70AFF37E0638A626844
:101E9000D15C2068FFF797FF608A401C80B26082A7
:101EA000A189884201DB00206082A08A401EA082B6
:101EB00024E040F226612068FFF7C7FEF0B1A08A57
:101EC00050B9002240F226612068FFF7E8FE206A40
:101ED000A0B1206A804711E0638A6268D15C206803
:101EE000FFF771FF608A401C80B26082A18988423E
:101EF00001DB00206082A08A401EA08210BD2DE977
:101F0000F04104460E461746002527E00CE001206C
:101F100000F0E2F8B4F81480002000F0DDF8A089A9
:101F2000404500DD01E000BFF1E700BF705D228A9F
:101F300061688854012000F0CFF8208A401C80B2EC
:101F40002082A189884201DB00202082A08A401CD7
:101F5000A082002000F0C0F8681C85B2BD42D5DB2D
:101F6000012240F227712068FFF799FEBDE8F08159
:101F70002B482C4908602C4848602C4888604FF456
:101F800080608881C881002008824882C8820883D6
:101F900048838882C86108624862254825490860EC
:101FA000254848602548886001208881C002C88192
:101FB000002008824882C882088348838882C861DA
:101FC000086248621E481F4908601F4848601F4851
:101FD00088604FF480608881C88100200882488230
:101FE000C8820883488388821948C86119480862F2
:101FF0000020486218481949086019484860194883
:1020000088604FF480608881C881002008824882FF
:10201000C882088348838882C86108624862704722
:1020200000100140340100205C0100205C0500200C
:10203000004400405C0900201900002084090020B1
:102040000048004084110020AC110020AC15002095
:10205000F91B0008051C000800140140AC19002001
:10206000D4190020D41D002000BFFEE70FB4054B9B
:1020700010B503A9044A029800F032F810BC5DF8CC
:1020800014FB0000CD2D0008500000200FB4084BB9
:1020900010B504A902AA039800F022F8044602A988
:1020A000002000F04CFA204610BC5DF814FB000044
:1020B0003F25000802E008C8121F08C1002AFAD113
:1020C00070477047002001E001C1121F002AFBD1B8
:1020D000704780F31088704780F3108870470000C5
:1020E0002DE9FF4F8DB00F4605460026DEE125287D
:1020F00074D100246D1CF149A246A14601222B781F
:10210000203B02FA03F0084202D004436D1CF6E7BC
:1021100028782A2810D06FF02F022878A0F13001FB
:10212000092915D80AEB8A0102EB410144F00204A7
:1021300000EB010A6D1CF0E757F804ABBAF1000F91
:1021400003DA44F40054CAF1000A44F002046D1C9E
:1021500028782E2817D115F8010F44F004042A28F6
:102160000ED06FF02F022878A0F1300109290AD88B
:1021700009EB890102EB410100EB01096D1CF2E75B
:1021800057F8049B6D1C28786C280FD006DC4C286F
:1021900017D068280DD06A2814D104E0742810D014
:1021A0007A280FD10DE044F400140AE044F48014BE
:1021B00001E044F440146978814202D16D1C04F5B9
:1021C00080146D1C2A786E2A20D00DDC632A33D04F
:1021D00005DC002A6FD0582A12D1A2E011E0642A4F
:1021E0006AD0692A0CD167E0732A2FD004DC6F2AE9
:1021F0006FD0702A04D199E0752A6BD0782A6AD002
:102200001046DDE90F129047761C4EE1C4F30250F0
:10221000022806D003280AD0042801CF0AD006607D
:1022200043E101CF4FEAE671C0E900613DE101CF32
:1022300006803AE1067038E117F8040B8DF80000CB
:1022400000208DF80100EB46012003E057F804BBA5
:102250004FF0FF3061074FF0000102D40DE008F1AC
:102260000101884649450FDA8045F8DB1BF8081064
:102270000029F4D108E008F1010188468142FADB27
:102280001BF808100029F6D1DDE90F23AAEB08009E
:102290008146214600F03BF9304400EB080604E09B
:1022A000DDE90F121BF8010B9047B8F10108F7D2D6
:1022B00021464846F4E0FDE00A21C4F302534FF002
:1022C000000B0891022B07D001CFC117032B09D0B7
:1022D0000AE034E023E024E0FF1D27F00707F7E8D9
:1022E000020105E000B2C117042B01D140B2C117B1
:1022F000002907DA4FF0000CD0EB0C006CEB010169
:102300002D2302E0230504D52B238DF8243001234F
:1023100003E0E30701D02023F7E7984650E00A21C5
:102320000EE010204FF0000B08900CE010214FF051
:10233000000B44F004044FF00809089103E0082161
:102340004FF0000B0891C4F30253022B04D001CFCD
:102350000021032B06D006E0FF1D27F00707F7E852
:10236000020103E080B2042B00D1C0B24FF000089C
:10237000230725D5702A2AD0DDF820C08CF0100C58
:102380005CEA0B0C09D150EA010306D030238DF82A
:1023900024308DF8252002239846DDF820C08CF0EB
:1023A000080C5CEA0B0C0BD150EA010301D1630766
:1023B00006D530238DF824304FF00108A9F101092A
:1023C000582A09D03EA20B9208AA0A9211E0402393
:1023D0008DF824300123DFE73EA2F4E75B46089A3C
:1023E000FDF716FF0B9B9B5C0A9AA2F101020A9271
:1023F000137050EA0102F1D10A98ADEB000000F130
:10240000200B600702D524F4803401E04FF001096D
:10241000D94502DDA9EB0B0000E0002000EB0B0129
:1024200041440890AAEB010AE00306D4DDE90F233A
:102430002146504600F06BF80644002008E009A948
:1024400011F80900DDE90F129047761C09F101002F
:1024500081464045F3DBE0030CD5DDE90F2321463F
:10246000504600F054F8064404E0DDE90F12302035
:102470009047761C0899481E08900029F5DC08E072
:102480000A980A990078491C0A91DDE90F129047D1
:10249000761CBBF10001ABF1010BF1DC214650468B
:1024A000DDE90F2300F020F806446D1C2878002891
:1024B0007FF41DAE11B03046BDE8F08F0928010051
:1024C00030313233343536373839616263646566AA
:1024D000000000003031323334353637383941426C
:1024E00043444546000000002DE9F0410446002524
:1024F0001E461746880405D406E039462020B0471A
:1025000005F10105641EF8D52846BDE8F0812DE9E6
:10251000F041044600251E469046C80301D53027E9
:1025200000E02027880405D506E041463846B0473C
:1025300005F10105641EF8D52846BDE8F0810A685A
:10254000531C0B601070704700B585B00121080363
:10255000FEF77CFC0020ADF800004FF48270ADF86F
:1025600002000020ADF804000220ADF806000120B2
:10257000ADF808004002ADF80A000820ADF80C00E4
:102580000020ADF80E000720ADF81000694606489F
:10259000FFF79AF800210448FFF77CF80121024870
:1025A000FFF778F805B000BD0030014010B50446D3
:1025B00004B910BD012C00D102240120FFF789FDD0
:1025C00009480460002009490870FFF782FD06E011
:1025D00000F074F805480078012800D100E0F7E722
:1025E00000BF00BFE5E700000C0000201000002045
:1025F00070B50546304800EB051420688047002878
:102600003ED02079052802DA0520207152E0207999
:102610000A2803DA2079401C20714BE0A07A38B9EF
:102620000120A07205EB4501491CC8B200F028FB4F
:10263000208900283EDDE088218988420DDAE08883
:10264000401C80B2E0802189884233D105EB4501EE
:10265000C91CC8B200F014FB2CE0E07A002829DD88
:10266000207B401CC0B22073E17A884222DB00202C
:10267000207305EB4501491CC8B200F001FB19E0CD
:102680002079052802DD0520207110E0207918B19D
:102690002079401E20710AE0A07A012807D100208D
:1026A000A07205EB4501891CC8B200F0E9FA0020D0
:1026B000E080207370BD000054000020704710B50A
:1026C00000F0CAFA00F06EF800F07AFA00F04EF866
:1026D00000F006F800F0A4F900F024F910BD0000A5
:1026E00010B5AA20FDF7F7FD00B21F490880AC2005
:1026F000FDF7F1FD00B21C494880AE20FDF7EBFD6F
:1027000000B219498880B020FDF7E5FD1649C88060
:10271000B220FDF7E0FD14490881B420FDF7DBFD90
:1027200011494881B620FDF7D6FD00B20E498881D7
:10273000B820FDF7D0FD00B20B49C881BA20FDF7E3
:10274000CAFD00B208490882BC20FDF7C4FD00B2F2
:1027500005494882BE20FDF7BEFD00B202498882CD
:102760000020887510BD0000F03100201CB501214B
:102770008020FEF74BFB01208DF804008DF8060049
:1027800000208DF8070003208DF805003020009010
:1027900069460348FDF783FF00F0BAFB1CBD00004B
:1027A000001C024010B500F053F800F001F810BD15
:1027B0001CB501214FF4F270FEF728FB00208DF8C4
:1027C00004008DF806008DF8070002208DF8050042
:1027D000C001009069461948FDF761FF4FF40050B1
:1027E000009069461648FDF75AFF4FF400600090CC
:1027F00069461248FDF753FF0420009069461148CE
:10280000FDF74DFF0820009069460E48FDF747FF91
:102810004FF40060009069460B48FDF740FF8020B0
:10282000009069460948FDF73AFF4FF400400090D8
:1028300069460448FDF733FF1CBD0000002002403C
:1028400000080240001C0240001402400018024030
:102850000021284A9172D1721173002018E064217E
:10286000254A02EB001211810221234A02EB0012D9
:1028700011710021204A02EB001291721E4A02EBF4
:102880000012D1721C4A02EB00121173411CC8B233
:102890000A28E4DB642218490A87052281F83B20D4
:1028A0006422A1F84820052281F84B206422A1F877
:1028B0005820052281F85B206422A1F868200522B7
:1028C00081F86B200D490C4A11600D4911610D49C9
:1028D00011620D4911630D4911640D4911650D49CE
:1028E00011660D4911670D49C2F880100C49C2F8F4
:1028F00090107047F400002054000020610B000885
:10290000910B0008A90B0008C10B0008D90B0008A7
:10291000F10B0008090C0008210C0008390C000814
:10292000790B00080EB50020FEF706FDA0F5485112
:10293000F2390DD0FEF7CAFB28A0FFF797FB7B20EA
:10294000FEF708FB002826D029A0FFF78FFB22E026
:102950002BA0FFF78BFB7B20FEF7FCFA18B124A01D
:10296000FFF784FB06E07A20FEF7F4FA10B128A006
:10297000FFF77CFB01210807FEF758FA0120FEF75C
:10298000AFF9FEF749FE4FF48070FEF791FB4FF46C
:102990000030FDF725FE4FF40030FDF721FE4FF427
:1029A0000030009000208DF8040008208DF805000C
:1029B00001208DF806006846FDF718FE29208DF8E5
:1029C000080000208DF809008DF80A0001208DF81C
:1029D0000B0002A8FEF73EF90EBD0000B5DAD2BB2F
:1029E000B4CECAB9D3C3525443200A0D000000002C
:1029F000B7A2C9FAC9CFB5E7B8B4CEBB200A0D005B
:102A0000B5DA6EB4CECAB9D3C3525443200A0D000E
:102A1000B7A2C9FAD2FDBDC5B8B4CEBB200A0D001D
:102A20001CB501212220FEF7F1F9052203212548DA
:102A3000FDF77DFE052204212248FDF778FE0522E0
:102A400011462048FDF773FE02208DF804008DF832
:102A5000050000208DF8060002208DF807003820C0
:102A6000009069461748FDF71AFE4FF4807016492A
:102A7000088001208DF8040000208DF80600022057
:102A80008DF8050000208DF8070088150090694634
:102A90000D481838FDF703FEFFF756FD00F0D2FD94
:102AA0004FF480700849891C0880042000F030FE33
:102AB0004FF480700449088000F046FE002000F0CA
:102AC00025FF1CBD00040240181402401CB58021E3
:102AD0003648FDF75AFE08213548FDF756FE2021FD
:102AE0003348FDF752FE0121A320FEF78FF90120A4
:102AF0008DF8040000208DF806008DF807000320F3
:102B00008DF805000820009069462948FDF7C7FDAB
:102B10002020009069462648FDF7C1FD80200090E6
:102B200069462248FDF7BBFD102000906946214808
:102B3000FDF7B5FD00208DF804008DF806008DF836
:102B4000070002208DF80500102000906946184803
:102B5000FDF7A5FD8020009069461748FDF79FFD11
:102B60000A20FFF723FDFEF795FF0520FFF71EFD66
:102B7000FEF7D0FF0520FFF719FD2020FEF730FFFC
:102B8000052803D101200D49087002E000200B49FF
:102B900008702020FFF708F80820FFF705F801204B
:102BA000FEF7A2FE0520FFF701FD1CBD0014024048
:102BB0000004024000000240001C02401A000020F5
:102BC00070B5002016E0002100EB40021E4B03EB25
:102BD0008202516000EB400203EB8202916000EB45
:102BE000400203EB8202517000EB400203F8221016
:102BF000411CC8B20428E6DB144909684FF47A7313
:102C0000B1FBF3F2511EB1F1807F00D31BE0511EE6
:102C10004FF0E023596159170F23002907DA1C07E9
:102C2000260E0B4C01F00F052D1F665503E01C0707
:102C3000250E084C655400BF00214FF0E023996138
:102C40000721196100BF70BD040100203C00002075
:102C500018ED00E000E400E010B5FFF789F9FDF79A
:102C60000BFEFDF787FC10BD10B5002404E02046E4
:102C7000FFF7BEFC601CC4B20A2CF8DB10BD0000DC
:102C80000649C97A054A50541146C97A491CC9B245
:102C9000D1720A2901DB0021D1727047F4000020B3
:102CA00010B5FFF7E1FF10BD7047416851B14168B1
:102CB000491E416006D1012141700178012901D1ED
:102CC000816841607047000070B504460D46042CD1
:102CD00006DB124A12A11DA0FFF7C8F900BFFEE7EC
:102CE0000120FFF7F6F904EB4400204901EB8000D6
:102CF000456004EB440001EB80008560002004EB9C
:102D000044011A4A02EB81014870012004EB44019E
:102D100002F821000020FFF7DCF970BD8B390008B4
:102D20002E2E5C2E2E5C557365725C6273705F7321
:102D3000746D3332663478785C7372635C6273707E
:102D40005F74696D65722E63000000004572726FDA
:102D5000723A2066696C652025732C2066756E6357
:102D600074696F6E20257328290D0A000401002064
:102D700070B505460E462846FDF7DAFB04460CB949
:102D8000002070BD31462046FFF721F8F9E72DE914
:102D9000F04105460E4617462846FDF7C9FB044696
:102DA0000CB9BDE8F081E06908B1E06980473A46B6
:102DB00031462046FFF7A3F800BFF2E713B50446FB
:102DC000012201A92046FFF7E2FF1CBD70B50446B1
:102DD0000D46E1B20020FFF7F1FF204670BD000074
:102DE00010B520200949088000F012F8102007498A
:102DF000891E088000F00CF810200449088000F0BB
:102E000007F820200149891E088010BD1A1C0240C5
:102E1000002001E0411CC8B21E28FBDB7047000007
:102E200010B5202007490880FFF7F2FF1020054960
:102E30000880FFF7EDFF10200249891C0880FFF78A
:102E4000E7FF10BD181C024070B50024002516E0F5
:102E50006006040E10200C490880FFF7D9FF0A48CD
:102E60000838006810F0200F01D0601CC4B2102098
:102E70000549891C0880FFF7CBFF681CC5B2082DE7
:102E8000E6DB204670BD0000181C024070B5044609
:102E9000002520E014F0800F03D020200F49088087
:102EA00003E020200D49891C0880FFF7B1FF1020A6
:102EB0000A490880FFF7ACFF10200849891C0880E8
:102EC000072D02D12020891E08806006040EFFF71E
:102ED0009FFF681CC5B2082DDCDB70BD181C0240CA
:102EE00010B520200949088010200880FFF790FFC6
:102EF00020200649891C0880FFF78AFF102003491B
:102F0000891C0880FFF784FF10BD0000181C0240D8
:102F100010B52020054908801020891E0880FFF781
:102F200077FF20200149891E088010BD1A1C02402D
:102F300010B520200C490880FFF76AFF10200A49CD
:102F40000880FFF765FF08480838006810F0200F78
:102F500001D0012400E0002410200349891C0880CE
:102F6000FFF756FF204610BD181C02402DED028BC6
:102F7000ADF5B65D002400250026A1460027A04639
:102F8000FFF79DFBFDF7B4FE2AE1FFF797FBFEF785
:102F900025FB03E0FFF792FBFEF720FB91488078CA
:102FA0000A2190FBF1F201FB12000028F2D18E49B8
:102FB0008EA0FFF75BF8FDF7EBFBFDF725FC8F48D4
:102FC00090ED000AB0EE408AB0EE480A41F2BC60D3
:102FD0006844FDF755FB0DF5805090F8BC3621464E
:102FE000641C0DF67C3043540DF5805090F8BD36CE
:102FF0002146641C0DF67C3043540DF5805090F84A
:10300000BE362146641C0DF67C3043540DF58050CD
:1030100090F8BF262046641C0DF67C310A5478488F
:1030200090ED000AB0EE408AB0EE480A01F5346037
:10303000FDF726FB0DF5805090F8BC362146641C48
:103040000DF67C3043540DF5805090F8BD36214686
:10305000641C0DF67C3043540DF5805090F8BE365C
:103060002146641C0DF67C3043540DF5805090F8D9
:10307000BF362146641C0DF67C304354614890ED08
:10308000060AB8EEC00AB0EE408AB0EE480A41F235
:10309000BC606844FDF7F4FA0DF5805090F8BC264A
:1030A0002046641C0DF67C310A540DF5805090F8D2
:1030B000BD262146641C0DF67C3042540DF580502F
:1030C00090F8BE262046641C0DF67C310A540DF59E
:1030D000805090F8BF262146641C0DF67C30425487
:1030E000484890ED070AB8EEC00AB0EE408AB0EE4C
:1030F000480A41F2BC606844FDF7C2FA0DF5805001
:1031000090F8BC262146641C0DF67C3042540DF527
:10311000805090F8BD262046641C0DF67C310A5480
:103120000DF5805090F8BE262046641C0A540DF51B
:10313000805090F8BF262046641C0A540EA9002037
:10314000FFF716FE002832D09DF83800312829D12B
:103150004FF00008A5F12F061CE0002E01DBB14660
:1031600001E006F5B4692848008B00FB09F14FF433
:1031700034620FA800F010FA002707E00FA8C15D25
:1031800022A0FEF773FF08F101087F1CB7F5346F2A
:10319000F4DB761CAE42E0DD2A4641461DA0FEF778
:1031A00065FF03E01EA0FEF761FF00BF00BFB4F59E
:1031B000346F15D10024FFF733FC1348008B00FB5C
:1031C00005F14FF434620DF67C3000F0D5FA10B9F9
:1031D00015A0FEF74BFF6D1CB5F5B46F00D10025AF
:1031E000D3E600002400002010320020B5B1C7B0A3
:1031F000CAB1BCE425730D0A0000000004000020E1
:1032000008000020F0310020D42100202025303299
:10321000580000000D0A25640D0A25640000000016
:1032200057726F6E67000000D0B4B4AED0D0466C59
:10323000617368B3F6B4EDA3A10D0A002DE9F05F48
:1032400007460D46164616B90120BDE8F09F3E48D8
:103250004069A84201D80020F7E73B48008BB04204
:1032600001DA0020F1E732462946384800F094F9A7
:10327000324639463548FCF7B5FF08B90120E4E786
:103280004FF0000A32463946304800F0C3F808B122
:103290004FF0010A2C48008B401E25EA00082A48FE
:1032A000008BB0420BD1002404E0385D274908555B
:1032B000601C84B22448008BA042F6DC10E0224857
:1032C000028B4146214800F067F91F48008B401EE1
:1032D000284084B21D49081932463946FCF770FF70
:1032E0004FF0000B00242AE0BAF1010F02D1404652
:1032F00000F070F81448028B4146144800F09EF824
:1033000032463946284600F023F810B94FF0010B39
:1033100017E032463946284600F01AF810B94FF047
:10332000010B0EE04FF0000903E009F101001FFA64
:1033300080F942F210708145F7DB601C84B2032CE7
:10334000D2DB00BF584680E7D4210020F0210020C6
:103350002DE9F04104460E46154660191B4949699E
:10336000884202D90120BDE8F0810DB90020FAE7BA
:103370004FF4807016490880032000F0C9F9C4F3A7
:10338000074000F0C5F9C4F3072000F0C1F9E0B22E
:1033900000F0BEF90EE0A52000F0BAF9074616F8D5
:1033A000011BB94206D04FF480700949891E08807C
:1033B0000120D8E72800A5F10105ECD14FF4807079
:1033C0000349891E08800020CDE70000D421002099
:1033D0001A14024010B5044600F088FA4FF48070C9
:1033E0000B490880202000F093F9C4F3074000F057
:1033F0008FF9C4F3072000F08BF9E0B200F088F9F0
:103400004FF480700249891E088000F09DF910BDBC
:103410001A14024070B5034600240BE013F8015B58
:10342000E843C5B211F8010B284201D0012070BD5C
:10343000601C84B29442F1DB0020F8E72DE9F041F2
:1034400004460E46154651480068514988425CD1F1
:10345000022D08DA284605EBD0714910B5EB410181
:1034600001D0BDE8F08100F041FA4FF48070494985
:103470000880AD2000F04CF9C6F3074000F048F991
:10348000C6F3072000F044F9F0B200F041F914F857
:10349000010B00F03DF914F8010B00F039F94FF47D
:1034A00080703C49891E088000F04EF9A81E85B244
:1034B000002716E04FF4807036490880AD2000F0F8
:1034C00027F914F8010B00F023F914F8010B00F0B0
:1034D0001FF94FF480702F49891E088000F034F9DD
:1034E0007F1C05EBD571B7EB610FE3D34FF4807010
:1034F00028490880042000F00BF94FF4807025491A
:10350000891E088000F020F93EE04FF0000827E017
:1035100000F0ECF94FF480701E490880022000F0A2
:10352000F7F8C6F3074000F0F3F8C6F3072000F001
:10353000EFF8F0B200F0ECF8002704E014F8010B0B
:1035400000F0E6F87F1CFF2FF8D94FF48070114986
:10355000891E088000F0F8F806F5807608F1010869
:10356000E91705EB1161B8EB212FD1D34FF480702F
:1035700008490880042000F0CBF84FF4807005491A
:10358000891E088000F0E0F800BF6AE7D42100201F
:103590004125BF001A14024070B506460C46154678
:1035A00025B1601913494969884200D970BD4FF4AB
:1035B000807011490880032000F0AAF8C4F3074086
:1035C00000F0A6F8C4F3072000F0A2F8E0B200F083
:1035D0009FF804E0A52000F09BF806F8010B2800F6
:1035E000A5F10105F6D14FF480700349891E0880CA
:1035F00000BFDBE7D42100201A1402402DE9F0417E
:103600004FF480700E4908809F2000F081F8A520BB
:1036100000F07EF80546A52000F07AF80646A520C1
:1036200000F076F807464FF480700549891E08803F
:10363000280440EA062040EA07042046BDE8F0815D
:103640001A14024010B5FFF7D9FF20490860084658
:1036500000681F49401806D01E4940180FD01E4967
:10366000401824D117E01DA11848001DFCF7C7FD24
:103670004FF40010154948614012088323E01AA155
:103680001248001DFCF7BBFD4FF400100F494861C4
:103690004012088317E017A10C48001DFCF7AFFD8E
:1036A0004FF4000009494861C01208830BE014A1DF
:1036B0000648001DFCF7A3FD4FF4001003494861C4
:1036C0004012088300BF00BF10BD0000D4210020BD
:1036D000BFDA40FF2C05FDFFFEDFD2FF535354320B
:1036E00035564630313642004D5832354C31363041
:1036F000364500005732355136344256000000003E
:10370000556E6B6E6F7720466C6173680000000029
:1037100010B5044600BF02210A48FDF7C7FF002884
:10372000F9D021460748FDF7CDFF00BF012105482C
:10373000FDF7BCFF0028F9D00248FDF7C0FFC0B27A
:1037400010BD00000030014010B54FF480700949F1
:1037500008800520FFF7DCFF00BFA520FFF7D8FF9A
:1037600010F0010FF9D14FF480700249891E0880D2
:1037700010BD00001A1402402DE9F05F07460D4607
:1037800016464FF00008C146C2460024A3465648DC
:10379000008BB5FBF0F100FB11501FFA80FA524884
:1037A000008BA0EB0A0084B24F48008B96FBF0F030
:1037B0001FFA80F84C48008B96FBF0F100FB11607B
:1037C0001FFA80F9BAF1000F2AD1B8F1000F08D121
:1037D000324629463846FFF731FD00287ED1BDE844
:1037E000F09F0EE04048028B29463846FFF726FD41
:1037F00008B90020F3E73C48008B05443A48008BA9
:1038000007445FEA0800A8F101011FFA81F8E9D135
:103810004A4629463846FFF711FD002861D1DEE708
:10382000B8F1000F1FD1A14515DDA9EB04001FFA67
:1038300080FB224629463846FFF700FD08B90020E4
:10384000CDE7254427445A4629463846FFF7F6FC7B
:10385000002846D1C3E7324629463846FFF7EEFC3A
:10386000E0BB0020BBE7301B86B21F48008B96FBF5
:10387000F0F01FFA80F81C48008B96FBF0F100FB7B
:1038800011601FFA80F9224629463846FFF7D6FC18
:1038900008B90020A3E7254427440EE01248028B14
:1038A00029463846FFF7CAFC08B9002097E70E48BA
:1038B000008B05440C48008B07445FEA0800A8F120
:1038C00001011FFA81F8E9D1B9F1000F09D04A4688
:1038D00029463846FFF7B2FC00B900E001E00020BD
:1038E0007DE701207BE70000D421002010B54FF4D4
:1038F0008070054908800620FFF70AFF4FF48070AA
:103900000149891E088010BD1A14024010B50446F2
:10391000174800681749884219D14FF4807016493A
:1039200008805020FFF7F4FE4FF480701249891E82
:103930000880891C08800120FFF7EAFE2046FFF777
:10394000E7FE4FF480700C49891E08800EE04FF4AA
:103950008070094908800120FFF7DAFE2046FFF752
:10396000D7FE4FF480700449891E088010BD000006
:10397000D42100204125BF001A1402406273705FF9
:10398000537461727454696D6572006273705F5331
:10399000746172744175746F54696D6572006273FD
:1039A000705F53746F7054696D657200CC39000894
:1039B0000000002054000000B4200008203A000855
:1039C000540000200C720000C42000080000000019
:1039D00000000000000000000000000000000000E7
:1039E00000000000000000000000000000000000D7
:1039F00000000000000000000000000001020304BD
:103A00000102030406070809007A030A0000000007
:103A1000000000000102030406070809000000007E
:040000050800018965
:00000001FF
